:020000040000FA
:100000000C945C000C946E000C946E000C946E00CA
:100010000C946E000C946E000C946E000C946E00A8
:100020000C946E000C946E000C946E000C946E0098
:100030000C946E000C946E000C946E000C946E0088
:100040000C942E010C946E000C946E000C946E00B7
:100050000C946E000C946E000C946E000C946E0068
:100060000C946E000C946E00000000002400270029
:100070002A0000000000250028002B0004040404CE
:100080000404040402020202020203030303030342
:10009000010204081020408001020408102001021F
:1000A00004081020000000080002010000030407FB
:1000B000000000000000000011241FBECFEFD8E0B8
:1000C000DEBFCDBF21E0A0E0B1E001C01D92A930AC
:1000D000B207E1F70E9478010C94FA010C94000039
:1000E00090E0FC01EC55FF4F2491FC01E057FF4FDD
:1000F0003491FC01E458FF4FE491EE23C9F0222330
:1001000039F0233001F1A8F4213019F1223029F11E
:10011000F0E0EE0FFF1FEE58FF4FA591B4918FB79F
:10012000F894EC91611126C030953E233C938FBF2B
:1001300008952730A9F02830C9F0243049F780917C
:1001400080008F7D03C0809180008F778093800036
:10015000DFCF84B58F7784BDDBCF84B58F7DFBCFB8
:100160008091B0008F778093B000D2CF8091B000A3
:100170008F7DF9CF3E2BDACF3FB7F8948091050100
:1001800090910601A0910701B091080126B5A89BA6
:1001900005C02F3F19F00196A11DB11D3FBFBA2F19
:1001A000A92F982F8827BC01CD01620F711D811DD9
:1001B000911D42E0660F771F881F991F4A95D1F75E
:1001C00008958F929F92AF92BF92CF92DF92EF925B
:1001D000FF920E94BC004B015C0188EEC82E83E0B8
:1001E000D82EE12CF12C0E94BC00681979098A09EB
:1001F0009B09683E734081059105A8F321E0C21A6E
:10020000D108E108F10888EE880E83E0981EA11C51
:10021000B11CC114D104E104F10429F7FF90EF905F
:10022000DF90CF90BF90AF909F908F900895CF9325
:10023000C82F682F617082E00E9470006C2F62707E
:1002400083E00E9470006C2F647084E00E94700054
:100250006C2F687085E0CF910C9470001F920F9204
:100260000FB60F9211242F933F938F939F93AF93C9
:10027000BF938091010190910201A0910301B0917F
:1002800004013091000123E0230F2D3758F501962A
:10029000A11DB11D209300018093010190930201E3
:1002A000A0930301B0930401809105019091060190
:1002B000A0910701B09108010196A11DB11D809385
:1002C000050190930601A0930701B0930801BF9127
:1002D000AF919F918F913F912F910F900FBE0F90F3
:1002E0001F90189526E8230F0296A11DB11DD2CFAD
:1002F000789484B5826084BD84B5816084BD85B501
:10030000826085BD85B5816085BD80916E0081600C
:1003100080936E00109281008091810082608093B2
:1003200081008091810081608093810080918000B4
:100330008160809380008091B10084608093B100DF
:100340008091B00081608093B00080917A008460D9
:1003500080937A0080917A00826080937A00809105
:100360007A00816080937A0080917A00806880931F
:100370007A001092C10022E030E0F901E057FF4F0F
:100380004491F901E458FF4F8491882399F090E05B
:10039000880F991FFC01E859FF4FA591B491FC010A
:1003A000EE58FF4F859194918FB7F894EC91E42B20
:1003B000EC938FBF2F5F3F4F26303105F1F6C0E041
:1003C000D0E086E00E9417010E94E10083E00E94D5
:1003D00017010E94E10089E00E9417010E94E100DC
:1003E0008CE00E9417010E94E100209751F30E94C7
:0803F0000000E7CFF894FFCFF5
:107E0000112484B714BE81FFF0D085E080938100F7
:107E100082E08093C00088E18093C10086E0809377
:107E2000C20080E18093C4008EE0C9D0259A86E02C
:107E300020E33CEF91E0309385002093840096BBD3
:107E4000B09BFECF1D9AA8958150A9F7CC24DD24C4
:107E500088248394B5E0AB2EA1E19A2EF3E0BF2EE7
:107E6000A2D0813461F49FD0082FAFD0023811F036
:107E7000013811F484E001C083E08DD089C08234E0
:107E800011F484E103C0853419F485E0A6D080C0E4
:107E9000853579F488D0E82EFF2485D0082F10E0AE
:107EA000102F00270E291F29000F111F8ED06801E7
:107EB0006FC0863521F484E090D080E0DECF843638
:107EC00009F040C070D06FD0082F6DD080E0C81688
:107ED00080E7D80618F4F601B7BEE895C0E0D1E017
:107EE00062D089930C17E1F7F0E0CF16F0E7DF06D8
:107EF00018F0F601B7BEE89568D007B600FCFDCFD4
:107F0000A601A0E0B1E02C9130E011968C91119780
:107F100090E0982F8827822B932B1296FA010C0160
:107F200087BEE89511244E5F5F4FF1E0A038BF0790
:107F300051F7F601A7BEE89507B600FCFDCF97BE46
:107F4000E89526C08437B1F42ED02DD0F82E2BD052
:107F50003CD0F601EF2C8F010F5F1F4F84911BD097
:107F6000EA94F801C1F70894C11CD11CFA94CF0C13
:107F7000D11C0EC0853739F428D08EE10CD085E9AC
:107F80000AD08FE07ACF813511F488E018D01DD067
:107F900080E101D065CF982F8091C00085FFFCCF94
:107FA0009093C60008958091C00087FFFCCF809118
:107FB000C00084FD01C0A8958091C6000895E0E648
:107FC000F0E098E1908380830895EDDF803219F02E
:107FD00088E0F5DFFFCF84E1DECF1F93182FE3DFCA
:107FE0001150E9F7F2DF1F91089580E0E8DFEE27F6
:047FF000FF270994CA
:027FFE00040479
:00000001FF
